:020000040800F2
:10000000C0DA0020990200081B6F0008ED240008E8
:100010006D6D000885140008B1B9000800000000EB
:10002000000000000000000000000000E3A4000841
:10003000091B0008000000002903000805A70008AC
:10004000B3020008B3020008B3020008B3020008BC
:10005000B3020008B3020008B3020008B3020008AC
:10006000B3020008B3020008B3020008B30200089C
:10007000B3020008B3020008B3020008B30200088C
:10008000B3020008B3020008B3020008B30200087C
:10009000B3020008B3020008B3020008B30200086C
:1000A000B3020008A9A80008B3020008E5A70008E9
:1000B000B3020008B3020008F9A80008B302000860
:1000C000B3020008B3020008B3020008B30200083C
:1000D000B30200080DB80008B3020008B30200081C
:1000E000B3020008B3020008B3020008B30200081C
:1000F000B3020008B3020008B3020008B30200080C
:10010000B3020008A98F0008B3020008B302000878
:10011000B3020008B3020008B3020008B3020008EB
:10012000B3020008B3020008B3020008B3020008DB
:10013000B3020008B3020008B3020008B3020008CB
:10014000B3020008B3020008B3020008B3020008BB
:10015000B3020008B3020008B3020008B3020008AB
:10016000B3020008B3020008B3020008B30200089B
:10017000B3020008B3020008B3020008B30200088B
:10018000B3020008B302000800F002F800F06DF8B6
:100190000AA090E8000C82448344AAF10107DA45E2
:1001A00001D100F062F8AFF2090EBAE80F0013F0C7
:1001B000010F18BFFB1A43F001031847D487010051
:1001C000F48701000A444FF0000C10F8013B13F0D3
:1001D000070408BF10F8014B1D1108BF10F8015BA0
:1001E000641E05D010F8016B641E01F8016BF9D193
:1001F00013F0080F1EBF10F8014BAD1C0C1B09D1EA
:100200006D1E58BF01F801CBFAD505E014F8016B5B
:1002100001F8016B6D1EF9D59142D6D370470000ED
:100220000023002400250026103A28BF78C1FBD8FF
:10023000520728BF30C148BF0B607047642900F0E7
:100240003181752900F02E81782900F067816329BA
:1002500000F02584732900F02A84002070471FB520
:1002600016F009F81FBD10B510BD00F05BFC11467B
:10027000FFF7F5FF11F0F4F900F079FC03B4FFF794
:10028000F2FF03BC0BF064FD30BF72B6704762B67C
:10029000704780F30888704709488047094800473D
:1002A000FEE7FEE7FEE7FEE7FEE7FEE7FEE7FEE726
:1002B000FEE7FEE704480549054A064B7047000083
:1002C00025A7000889010008C0D40020C0DA00205A
:1002D000C0D60020C0D60020EFF3108072B6704761
:1002E00080F310887047264C4FF6FF7525604FF05D
:1002F000000484F30988234C4FF001052570224C3B
:100300004FF08055256062B6FEE730B41E4C4FF0CA
:100310008055256030BC704730B41B4C4FF0805581
:10032000256030BC704700BF72B6EFF3098050B152
:100330001EF0100F08BF20ED108A203880E8F00F63
:1003400012490968086000B5114880475DF804EB60
:10035000104811490A7802700C4810490A68026076
:10036000106890E8F00F20301EF0100F08BFB0ECBE
:10037000108A80F309884EF0040E62B6704700BF01
:1003800022ED00E07705002004ED00E0900500205C
:10039000E976000874050020750500209805002006
:1003A000704710B54C1084EA530404D54042C1F1A3
:1003B000000138BF491E1B4204D55242C3F100035D
:1003C00038BF5B1E00F086FA14F0804F04D0404224
:1003D000C1F1000138BF491E14F0004F04D0524251
:1003E000C3F1000338BF5B1E10BD00000FB4044909
:1003F00010B503AA029800F05FFB10BC5DF814FB77
:100400005C05002070B5044685690068C10601D509
:10041000302600E02026C00707D070BDD4E90121B6
:1004200030469047206A401C20626D1EF6D570BD94
:1004300070B5044685690078C00707D170BDD4E95E
:10044000012120209047206A401C20626D1EF6D5B5
:1004500070BD70B50C460546012A05D02878800687
:1004600000D5EA69002302E0012305E05B1C93420A
:1004700002D2E05C0028F9D1A869E618C01AA86188
:10048000286A184428622846FFF7BCFF04E0D5E933
:10049000012114F8010B9047B442F8D32846FFF726
:1004A000C7FF70BD2DE9F04106460024106875298C
:1004B000314616A510D0AFF30080002802DA404282
:1004C00013A507E031688A0701D512A502E04907A4
:1004D00004D511A5012401E0AFF3008000210A2218
:1004E00006F1240709E0B0FBF2FCB0FBF2F302FBDB
:1004F0001C00303078541846491C0028F3D123469C
:100500002A463046BDE8F04100F066BA000000001F
:100510002D0000002B0000002000000070B50446F4
:100520000D4621461068AFF300802188090502D5E9
:100530000F4A7A4402E00E4A7A440E32002104F156
:10054000240305E000F00F060009965D5E54491C87
:100550000028F7D120780023000704D5702D02D0A1
:1005600009B1022311322046BDE8704000F034BAD0
:10057000FE7F01002DE9F05F894604464FF0000A36
:10058000DFF874B1FB44C0F820A02046E16888473A
:10059000002874D0252806D0D4E901219047206A8C
:1005A000401C2062F1E700265F462046E16888474C
:1005B0002028054607DB312D05D2781910F8200CCC
:1005C00008B10643F1E7B00701D526F00406C4F8E8
:1005D0001CA00027C4F818A02A2D09D028460BF02B
:1005E000B0FB38B304EB8708303DC8F8185019E069
:1005F00059F8041B204604EB87029161E1688847A3
:10060000012F054618D1E069002820DA26F02006DF
:100610001DE0D8F8180000EB800005EB40003038F2
:10062000C8F818002046E168884705460BF089FBAA
:100630000028EED1012F0AD02E2D08D12046E168E6
:1006400088477F1C0546022F46F02006C4DBA069C0
:10065000002803DA404246F00106A061F00701D00D
:1006600026F010066C2D0BD0682D09D04C2D39D0FA
:100670006A2D35D0742D35D07A2D33D016E038E080
:10068000E1682F4620468847B842054609D16C2FBD
:1006900026D04FF48060E16806432046884705462F
:1006A00004E06C2F1AD04FF4807006430DB3A5F10F
:1006B0004100192802D8203546F400664A462946EA
:1006C000204626604E46FFF7B9FD80B101280BD0C9
:1006D000F61D26F0070000F1080956E74020E4E780
:1006E0008020D8E70020D6E706F104094DE7284628
:1006F00052E7206ABDE8F09FD47F010040EA010381
:10070000024630B59B0710D14FF0013400E008C21B
:1007100008C91D1B9D4315EAC41FF8D013F0FF0143
:1007200002F8011B0DD01B0AF8E711F8013B002B62
:1007300002F8013B05D011F8013B002B02F8013B08
:10074000F3D130BD421E12F8013F002BFBD111F84E
:10075000013B002B02F8013BF9D17047032A40F21C
:10076000308010F0030C00F0158011F8013BBCF153
:10077000020F624498BF11F801CB00F8013B38BF6B
:1007800011F8013BA2F1040298BF00F801CB38BF79
:1007900000F8013B11F0030300F02580083AC0F097
:1007A000088051F8043B083A51F804CBA0E808103F
:1007B000F5E7121D5CBF51F8043B40F8043BAFF372
:1007C0000080D20724BF11F8013B11F801CB48BFCC
:1007D00011F8012B24BF00F8013B00F801CB48BF02
:1007E00000F8012B704710B5203AC0F00B80B1E83B
:1007F0001850203AA0E81850B1E81850A0E8185056
:10080000BFF4F5AF5FEA027C24BFB1E81850A0E85E
:10081000185044BF18C918C0BDE810405FEA827C78
:1008200024BF51F8043B40F8043B08BF7047D2078F
:1008300028BF31F8023B48BF11F8012B28BF20F830
:10084000023B48BF00F8012B704700004FF0013C0D
:1008500050F8042B51F8043B9A4221D1A2EB0C032F
:10086000934313EACC1317D150F8042B51F8043BEF
:100870009A4215D1A2EB0C03934313EACC130BD18C
:1008800050F8042B51F8043B9A4209D1A2EB0C0317
:10089000934313EACC13DBD04FF00000704700BF46
:1008A000D01A01BAB1FA81F101F0180122FA01F06F
:1008B000CB40C1F12001DBB2C0B2C01A2CFA01F367
:1008C000D11A914311EAC311E6D1704770477047BE
:1008D0007047704753EA020C00F069802DE9F04B35
:1008E0004FF00006002B1FBFB3FA83F503FA05F49F
:1008F00024FA05F65E4012BF1643B2FA82F502FAF8
:1009000005F4C5F120051EBF22FA05FC44EA0C04DB
:10091000203556EA044C4FEA144418BF641C4FF0CB
:1009200000084FF00009904271EB030C39D3002905
:1009300019BFB1FA81F701FA07F6B0FA80F700FAA9
:1009400007F6C7F120071EBF20FA07FC46EA0C068F
:100950002037B6FBF4FCA7EB0507103F07F01F0B91
:10096000CBF120060CFA0BFB2CFA06F644BFB3467B
:100970000026202FA4BF5E464FF0000B5BEA060C5A
:1009800008BF4FF0010B19EB0B09ABFB027C48EBE6
:100990000608C01B06FB02CC0BFB03CC71EB0C0161
:1009A000C1E70B46024641464846BDE8F08B13B509
:1009B0004FF000004FF00001AFF30080BDE81C4095
:1009C000704710B500F08AF8006810BD10B50446F5
:1009D00000F084F8046010BD2DE9F0470D469946FB
:1009E0009246044600F124080168880604D5E069AF
:1009F00021F01001216000E00120A84201DD471B29
:100A000000E00027A1697A1902EB0900081AA06129
:100A10002078C00602D42046FFF7F4FC002608E048
:100A2000D4E901211AF806009047206A401C761C80
:100A300020624E45F4DB2078C0060AD52046FFF739
:100A4000E1FC06E0D4E9012130209047206A401CF7
:100A50002062381EA7F10107F4DC07E0D4E9012188
:100A600018F805009047206A401C2062281EA5F156
:100A70000105F3DC2046FFF7DBFC2078000602D5F9
:100A80000220BDE8F0870120FBE710B5436913B1F0
:100A9000AFF3008001E0FFF7DCFC012010BD12780D
:100AA00000F124010A7000224A700122EDE711686A
:100AB0004FF0FF32E9E70000074B70B50D467B446D
:100AC00000F015F80446284600F024F810B14FF065
:100AD000FF3070BD204670BD7BE4000000487047C9
:100AE00060D4002001694A1C02610878704700B593
:100AF0008FB0CDE901310021059105497944CDE957
:100B0000031011466846FFF735FD0FB000BD000029
:100B1000E5FFFFFF007B00F0800070470048704752
:100B200060D400207546FFF7F9FFAE460500694620
:100B3000534620F00700854618B020B5FFF7BAFBF2
:100B4000BDE820404FF000064FF000074FF00008CE
:100B50004FF0000B21F00701AC46ACE8C009ACE84F
:100B6000C009ACE8C009ACE8C0098D46704710B5B3
:100B70000446AFF300802046BDE81040FFF77EBB7F
:100B8000F0B50424012814D000EBC00101EB0016DD
:100B90001E366FF002010C4D0F46384673182218AE
:100BA000C2EB021205EBC20232F813201AB1002088
:100BB000F0BD3726EDE7401C0328F0DD491C032972
:100BC000EBDD0120F0BD0000342A002001F0B0BCB4
:100BD0002DE9F0410D460146002004464E1908E07B
:100BE0000702301B401E80B200F007F8641C384436
:100BF000E4B2AC42F4D3BDE8F08110B5044601F094
:100C00003DFD200AA02101EB4000C0B201F006FD2D
:100C100001F076FDE0B201F001FD01F071FD01F09F
:100C20002DFDA12001F0FAFC01F06AFD002001F089
:100C3000C1FC044601F042FD204610BD2DE9F04103
:100C400016460D460746002409E0E00025FA00F0AC
:100C5000C1B2381980B200F006F8641CE4B2B442A4
:100C6000F3D3BDE8F08170B50D46044601F006FDF2
:100C7000200AA02101EB4000C0B201F0CFFC01F03E
:100C80003FFDE0B201F0CAFC01F03AFD284601F058
:100C9000C5FC01F035FD01F011FDBDE870400A20F2
:100CA0000BF074BC2DE9F04F0446006A002787B0B2
:100CB00004F1100B0F280BD0401C20620E2835DBEE
:100CC00060688046382815D0A568032D22D02DE015
:100CD00008F00EF80B21B0FBF1F201FB120008B195
:100CE000206AEBE71C2259466846FFF77CFD94E832
:100CF0000F0018E025681A2D18DAA668042E15D101
:100D00001C2259466846FFF76EFD3246414628468A
:100D1000E36808E01C2259466846FFF764FD2A464E
:100D20004146E368206800F041F92762DFF8C89186
:100D3000DFF8C8A1D9F8100001286CD170482568E7
:100D40000168CA1C954204D08D4202D0CA1E954249
:100D50001ED1A1688846022913D0B8F1010F14D121
:100D600041686268914210DA084666680246314678
:100D7000B04201DA30461146C01E091D81423ED004
:100D800049E0416862689142EEDC07B0BDE8F08F4F
:100D900042686668D01C864204D0964202D0D01EBB
:100DA0008642F2D1A068804604280DD0B8F1030F26
:100DB000EBD1A942E9DA3046A94201DA2A460846CF
:100DC000111F5346001D15E0A942F4DCDDE7C6EB18
:100DD000061C03EBCC0C3CF810C0BCF1000F0BD18F
:100DE000C0EB001C03EBCC0C3CF815C0BCF11F0F92
:100DF00002D1401C8842EADDD21E90420BD11C2257
:100E000059466846FFF7EFFC424631462846E368FC
:100E100000F0CCF82762D9F810000228B5D1384884
:100E200025682C300168CA1C954204D08D4202D03E
:100E3000CA1E954228D1A168884602291FD0B8F160
:100E4000010FA2D14168626891429EDA0846666845
:100E500002463146B04201DA30461146C01E091D35
:100E6000814292D11C2259466846FFF7BCFC42469B
:100E700031462846E36800F099F8276285E7416823
:100E800062689142E2DC80E742686668D01C864274
:100E900004D0964202D0D01E864297D1A0688046E8
:100EA00004280DD0B8F1030F90D1A9428EDA304654
:100EB000A94201DA2A460846111F5346001D15E0D3
:100EC000A942F4DC61E7C6EB061C03EBCC0C3CF852
:100ED00010C0BCF1000F0BD1C0EB001C03EBCC0C1D
:100EE0003CF815C0BCF11F0F02D1401C8842EADD5E
:100EF000D21E9042B6D048E708010020342A0020D4
:100F0000EC4A00202DE9F041054688B00C46006807
:100F1000FFF736FE002843D02868012819D000EBDF
:100F2000C00101EB00161E361F490427A1F56A72A5
:100F3000C4E900675269A06901EBC201022251F8BD
:100F400004CC0123604506D1032121614FF4FC61EB
:100F50000CE03726E8E751F8081C884203D147F631
:100F60000F01226102E047F6FF712361A18184F83D
:100F70002830A260401C9046A0611C2204F11001A0
:100F80006846FFF730FC424639463046E36806F0D3
:100F900087FF2868401C2860022801D1C01E2860F5
:100FA00008B0BDE8F0810000B0040020F0B5204E8C
:100FB0001E4D0A9F74684FF0010C04EB8403012A54
:100FC00006D0022A0CD0032A12D0042A18D125E018
:100FD00045F8230005EB8300091FC0E9011C0FE061
:100FE00045F8230005EB8300091D4160022106E05E
:100FF000001F45F8230005EB830041600321816059
:1010000005EB8300641C80F80CC080F80DC00761FC
:101010007460322C01D100207060F0BD001D45F8D5
:10102000230005EB830041600421E8E754460020DB
:10103000080100202DE9F04328490446406A4A7817
:1010400087B00AB901283ED0897809B902283AD078
:1010500001230021372205259846012836D06161F9
:101060002D20216184E8050140F2CF10A081256286
:101070006FF00201DFF868C02668894615464846C9
:1010800077182A18C2EB02120CEBC20232F81720B2
:1010900002B10023401C0328F3DD491C0329EEDDC7
:1010A000002B10D084F828801C2204F1100168461F
:1010B000FFF799FBD4E902232946304606F0F0FEFB
:1010C000A069401CA06107B0BDE8F08361610E20FB
:1010D000216184E805014FF47840C7E7080100204A
:1010E000342A002030B50446006A87B0052803D0B2
:1010F000401C206207B030BD0C48002504F11001EF
:10110000C278052A02D1626A012A05D00078052832
:10111000F0D1606A0228EDD11C226846FFF763FB1C
:1011200094E80F00FFF742FF2562E3E70801002083
:10113000C1EB0112064901EBC20131F8100018B1F0
:101140001F2803D0002070470120704702207047FD
:10115000342A00202DE9F0470027DFF804A10446D7
:10116000B94607EB870604EB8605287B002871D07B
:10117000687B18BB696854F82600C1EB01120AEBC2
:10118000C20232F810200AB11F2A07D1FFF7D0FFA0
:10119000024654F82600696800F0C0FAA8680128E1
:1011A00006D0022807D0032809D0042810D10AE06D
:1011B0006868401E01E06868401C686008E054F8F8
:1011C0002600401E02E054F82600401C44F8260089
:1011D00054F826006968FFF7ABFF02002FD054F8DF
:1011E0002600696806F048FE687B08B185F80D9016
:1011F000002000EB800804EB8803197B39B3B84268
:1012000025D054F8262054F828108A421FD1696846
:101210005A6891421BD100EB800004EB800080F8FB
:101220000C9085F80C9054F828005968FFF780FF5F
:10123000024654F82800596800F070FA0AE007EBFB
:10124000870004EB8000BDE8F04700F00BB8401CBD
:101250003228CEDB7F1C322F83DB0220BDE8F087F3
:10126000342A00202DE9F84F05468348D5E9004689
:10127000C6EB061100EBC1094FF6FF7A39F81400EE
:101280004FF00008A0F57A4120391FD0A0F5F641B3
:10129000EF3964D0A0F50441303960D02969774C2A
:1012A000002971D064286FD368286DD26422B0FB06
:1012B000F2F302FB130000EB4002714E02EBC0039D
:1012C00006EB8302106903284AD058E0A8684FF063
:1012D000030B012801D002281BD16FF00107E01990
:1012E00039F81020A2F57A4120390FD10BEB860294
:1012F0000BEB800129F8108093B28AB20AEA8601CA
:101300000AEA8000CDF8008001F092FD7F1C022FD8
:10131000E5DDA868032801D0042820D16FF001077B
:101320004FF62029F0195449C0EB001201EBC2011D
:1013300031F814304B450FD121F814800BEB8002AB
:1013400093B20BEB84018AB20AEA80010AEA8400B4
:10135000CDF8008001F06CFD7F1C022FE2DD79E00A
:10136000978947F6E03CB7F5FC6F05D0674506D195
:101370004FF61F0090816DE0A2F80CC06AE00129D1
:1013800003D0022913D020E02DE03C4901288969CF
:1013900004D0022804D0032806D016E0643101E00E
:1013A00001F59671A16110E001F5FA71FAE7334990
:1013B0000128C96904D0022804D0032810D004E011
:1013C000643101E001F59671E16182F82880E068FE
:1013D000401EE06056F82300516800F0B9F939E08A
:1013E00001F5FA71F0E7B0F5784F0AD0A0F58072F8
:1013F000CF3A2AD1224ADC3292F82830012B15D07C
:1014000023E01F4AB03292F82830012B1DD1536AD5
:1014100099421AD082F82880D2E90001464600F0AD
:1014200097F92E736078401E607021E0536A9942EC
:101430000BD082F82880D2E90001464600F088F9F6
:101440002E73A078401EA07012E031B9A0F16401A3
:10145000032902D885F80C800AE0504508D14FF4E2
:101460007A700BF093F8BDE8F84F00200EF030B81A
:101470000220BDE8F88F0000342A00200801002077
:101480003C4A0020FEE7000070B50F4C0025C4F870
:1014900080520E48016821F440010160016841F466
:1014A00080010160022004F520740BF091F80848D7
:1014B000C0F8AC5202200BF08BF801202060022013
:1014C0000BF086F8256070BD008040420014024099
:1014D000008042421CB50121222007F05BFB012461
:1014E0008DF8044000208DF8060000948DF8074028
:1014F0006946064800F074FDE00200908DF8044053
:101500006946034800F06CFD1CBD00000004024069
:101510000014024070B50F4C0026C4F880620E48DB
:10152000016821F440010160016841F4800101601B
:10153000022004F520740BF04BF808480125C0F890
:10154000AC5202200BF044F8256002200BF040F86A
:10155000266070BD0080404200140240008042427C
:101560002DE9F047824617480024016821F4400124
:101570000160016801601E200BF02AF80025124E60
:10158000DFF848902F464FF00108C6F8807202201D
:101590000BF01EF8C6F880826006040ED9F82C0203
:1015A00008B1641CE4B26D1CEDB2082DEDD3BAF1A4
:1015B000000F04D0FFF768FF2046BDE8F087FFF773
:1015C000A9FFF9E700140240008040420080424237
:1015D0002DE9F04705461548016821F440010160F6
:1015E000016841F480010160114E0027C6F8807245
:1015F00002200AF0EDFFDFF83C8000244FF00109E3
:10160000E909C8F8AC126806050EC6F880920220F7
:101610000AF0DEFFC6F8807202200AF0D9FF641CCF
:10162000E4B2082CECD3BDE8F087000000140240BF
:10163000008040420080424270B50F48016821F4AA
:1016400040010160016841F4800101600B4E0120FE
:10165000C6F8AC020A4DC5F880021E2005F52075BB
:1016600006F52B760AF0B4FF0024346002200AF05D
:10167000AFFF2C6070BD00000014024000804242A9
:101680000080404270B50D48016821F440010160BE
:10169000016841F48001016009480125C0F88052C9
:1016A0001E200AF095FF074C0020C4F8AC0202206F
:1016B00004F52B740AF08CFF256070BD0014024005
:1016C000008040420080424270B511480024016809
:1016D00021F440010160016801600E4D0120C5F850
:1016E000AC020D4EC6F8800207E0641CE4B2FA2C8E
:1016F00003D9FFF7C7FF012070BD02200AF068FF81
:10170000D5F82C020028F0D1C6F8800270BD000088
:1017100000140240008042420080404238B5032459
:1017200004EB81034FF6FF7504EB800405EA8101A9
:1017300005EA8000022A08D0012A05D10022009281
:101740009BB2A2B201F074FB38BD1F22F7E7000084
:10175000F8B56FF00203124F9C4600256246C6188A
:101760008C18C4EB041407EBC404521C24F8165064
:10177000032AF5DD5B1C032BF0DD8A000C3A009593
:1017800095B282000C3A94B20F2202EB810102EB77
:1017900080008BB282B22946204601F049FBF8BD99
:1017A000342A002070B500254FF4803405E08020F5
:1017B00007F0E8FB08B144B101E0641EF7D240F243
:1017C000FF5007F0B7FB284670BD032070BD000036
:1017D00010B504461348016811F0450FFBD00420F2
:1017E00007F0D0FB20B1042007F0A4FB032010BDBC
:1017F000012007F0C7FB20B1012007F09BFB01206F
:1018000010BD084824380068A04201D0102010BD47
:1018100040F2FF5007F08EFB02482038006800F0CD
:10182000080010BD342C014010B500244FF4803165
:101830000E4809E0026812F0450F05D009B15007C3
:1018400005D5032404200CE0491EF3D2F7E701205C
:1018500007F098FB18B10124204607F06BFB40F21B
:10186000FF5007F067FB204610BD0000342C0140FC
:1018700010B50A49086810F0450FFBD0042007F0A6
:1018800081FB20B1042007F055FB032010BD40F27E
:10189000FF5007F04FFB002010BD0000342C01402A
:1018A00070B506461C480D460024026812F0450F2C
:1018B000FBD0042007F066FB20B1042007F03AFBC0
:1018C000032070BD012007F05DFB20B1012007F06F
:1018D00031FB012070BD104824380068B04212D19D
:1018E00040F2FF5007F026FB0B482038026812F444
:1018F000604F03D0900404D5132070BD100C2880D5
:1019000007E0500401D5102070BD100401D50F2050
:1019100070BD204670BD0000342C014010B500247D
:101920004FF480320B4809E0016811F0450F05D0F3
:101930000AB1480705D50324042006E0521EF3D25D
:10194000F7E7480603D50024402007F0F3FA2046C5
:1019500010BD0000342C01400029016802D041F084
:10196000010101E021F00101016070472DE9F04320
:10197000016821F001010160002101604160816086
:10198000C1600161212141613C493C4A3D2510393A
:10199000904202D18D60BDE8F083384A4FF47466FE
:1019A0001832904201D18E60F5E7344A4FF4741733
:1019B0003032904201D18F60EDE7304A4FF0746CC5
:1019C0004832904202D1C1F808C0E4E72B4B2C4AC0
:1019D0006033984201D1CA60DDE7284C294B783446
:1019E000A04201D1CB60D6E7DFF89080264C08F109
:1019F0009008404501D1CC60CDE7DFF880804FF002
:101A00003D5908F1A808404502D1C1F80C90C2E741
:101A10001E49DFF878800839404501D10D60BAE7EA
:101A20001A4D1835A84201D10E60B4E7174D303574
:101A3000A84201D10F60AEE7144D4835A84202D14B
:101A4000C1F800C0A7E7114D10496035091FA84231
:101A500001D10A609FE70D4A7832904201D10B60B4
:101A600099E70A4A9032904201D10C6093E7074A05
:101A7000A83290428FD1C1F800908CE710600240EC
:101A80003D000020400F002000003D201064024077
:101A90000029016802D041F0200101E021F020017D
:101AA00001607047014600200968C90700D0012085
:101AB0007047000030B50368124ACC6813400A68CA
:101AC0002243D1E905452C432243CC6922430C6AC9
:101AD00022434C6A22438C6A22434C6B22438C6B18
:101AE00022431A430260426922F00703D1E90B2422
:101AF00022431A4342610A6942604A6882608968E7
:101B0000C16030BD3F801CF0704700008000A0F134
:101B1000C0400029016802D041F0010101E0024A01
:101B20001140016070470000FEFF0F0010B5D0E9C2
:101B300001121143D0E903231A43114342691143AF
:101B400082691143C2691143026A1143426A114317
:101B5000826A1143C26A1143026B11430268920008
:101B6000A2F1C04211608168082907D1016889008B
:101B7000A1F1C0410A6842F040020A60416BD1E91C
:101B8000002342EA03128B688C891B0243EA044358
:101B90001A430B8A42EA03520B7D896942EA0362C7
:101BA0000A4301688900A1F1C0414A60C16AB1F5E8
:101BB000804F08D000686FF070418000A0F1C040F5
:101BC000C0F8041110BD816BD1E9002342EA031271
:101BD0008B680C8A1B0243EA04531A430B7D896904
:101BE00042EA036200680A438000A0F1C040C0F8E6
:101BF000042110BDFEB50121062006F0CBFF022016
:101C0000002401908DF808408DF80A4003208DF8DB
:101C1000090001258DF80B5001A9254800F0E0F9D5
:101C2000680301908DF8085001A9224800F0D8F906
:101C3000FFF750FC204EC6F8B442142006F52D766E
:101C40000AF0A4FC356032200AF0A0FC8DF80040B8
:101C500001226946002000F0FDF801226946A42017
:101C600000F0F8F816208DF8000001226946802067
:101C700000F0F0F80C208DF8000001226946882061
:101C800000F0E8F802226946A12000F01DF89DF856
:101C90000000302803D19DF80100032801D0012065
:101CA000FEBD43F2030105A0FEF7A0FB0020FEBD30
:101CB000000402400008024000004142435450200A
:101CC00049443A25780D0A002DE9F04115460F46A2
:101CD0000446FFF7B1FC7020FFF77AFCFFF7F4FC35
:101CE000E0B2FFF775FCFFF7EFFCFFF7A5FC7120F2
:101CF000FFF76EFCFFF7E8FC00246E1E09E0B4421B
:101D000001D0012000E00020FFF72AFC3855641CB8
:101D1000E4B2AC42F3D3BDE8F041FFF7B3BC00003E
:101D20002DE9F143484F00244FF00A09387882B07A
:101D3000401CC0B2B0FBF9F209FB1201434DA046B2
:101D4000387009B10A2863D2012202A90220FFF7E4
:101D5000BBFF9DF8080001075AD000F00F000628CD
:101D600056D2FF218140C84340F0C00085F82000D2
:101D70004FF00108002695F8201008FA04F00142FF
:101D800039D033480422694630F81400FFF79CFF2D
:101D900095F830009DF80010C0079DF8010001F093
:101DA0000F010ED000EB012105EB4400C1829DF82C
:101DB00002209DF8031002F00F0201EB0221818145
:101DC0000FE000EB0120C0F5F07105EB44008181CC
:101DD0009DF802209DF8031002F00F0201EB022192
:101DE000C1829DF800000821B1EB101F03D005EB64
:101DF0004400C6828681641CE4B2052CBBD3A98949
:101E00004FF0010819B9E88A08B98DF808603E70EA
:101E10009DF80800C0060ED195F82000010602D5F5
:101E200020F0800005E04FF6FF71A981E98200F003
:101E3000E00085F820003878F02801D987F8009074
:101E40004046BDE8FE830000FF040020040500209A
:101E50000C7B01082DE9F04115460E46044600278B
:101E6000FFF7EAFB7020FFF7B3FBFFF72DFCE0B2B2
:101E7000FFF7AEFBFFF728FC002408E0305DFFF71A
:101E8000A7FBFFF721FC070003D1641CE4B2AC42BE
:101E9000F4D3FFF7F7FB3846BDE8F0812DE9FC5F8E
:101EA00000244C4F00944FF4806801944025C7F8FB
:101EB0001080C7E902540E464FF0080B1021C7E905
:101EC00000B1A146384607F0A3F81020FFF780FCC8
:101ED000002853D14048AA464D4600890004386086
:101EE0003720C7E9010AC7E90398384607F090F898
:101EF0003720FFF76DFC002840D1411E07F1140088
:101F0000C0E9001B302181600221C0E903150121D5
:101F1000416107F01FF83320C7F808A0C7E9005057
:101F2000C7E90358384607F073F83320FFF750FC31
:101F3000050023D1DFF8A490DFF8A0804FF4001B48
:101F40006F46A9F14C0940F22A6AD9F8000010EA5C
:101F50000A0F0BD1584607F015F80028F5D0D8F82D
:101F6000000047F82400641C022CEED3082007F080
:101F700009F828B1082006F0DDFF0420BDE8FC9F29
:101F8000022006F0FFFF20B1022006F0D3FF02205E
:101F9000F4E7202006F0F6FF20B1202006F0CAFF6B
:101FA0000620EBE74FF40074204606F0EBFF20B16B
:101FB000204606F0BFFF0720E0E740F2FF5006F0A2
:101FC000B9FF009800BA7060019800BA30602846E6
:101FD000D4E70000704B002038050020802C014021
:101FE000F0B5002201274FF0030C0B6807FA02F549
:101FF0002B40AB422CD1066853000CFA03F4A643E5
:1020000006600E79D0F800E09E4046EA0E060660B3
:102010000E79012E01D0022E12D18668A643866069
:102020004E79D0F808E09E4046EA0E068660466883
:10203000AE43466045688E799640B6B235434560FA
:10204000C568A543C560CC799C40C3681C43C46087
:10205000521C102AC9D3F0BD4B07DB0E9A40C908A9
:1020600010B500EB8100016A0F249C40A14301627E
:10207000016A1143016210BD0246002012690A4242
:1020800000D0012070470183704700002DE9FF4117
:102090000121062006F07EFD00248DF804408DF815
:1020A000064003208DF80500DFF8C88002260125D0
:1020B00000968DF8075069464046FFF791FF680388
:1020C00000908DF8045069462B48FFF789FFFFF711
:1020D00001FA2A4FC7F8B4420A2007F52D770AF013
:1020E00055FA3D600A200AF051FA8DF80450009626
:1020F0008DF8074069464046FFF772FF64200AF0FA
:1021000045FA042202A948F2401000F04DF88DF87B
:102110000C4002A91AA0FEF769F91CA102A8FEF75B
:1021200095FB18B1012004B0BDE8F08148F24005EC
:102130008DF80860012202A9284600F049F9012221
:1021400002A9E81D00F030F89DF80810602905D2BA
:1021500010A0FEF74BF9012000F014F90A200AF054
:1021600015FA8DF80840012202A9284600F030F93E
:102170000020D8E70004024000080240000041426D
:102180004354502049443A25730D0A0039313437FD
:102190000000000044656661756C74205665723AF3
:1021A00025640D0A000000002DE9F04115460F4698
:1021B0000446FFF741FA2820FFF70AFAFFF784FAEE
:1021C000200AFFF705FAFFF77FFAE0B2FFF700FAFF
:1021D000FFF77AFAFFF730FA2920FFF7F9F9FFF74E
:1021E00073FA00246E1E09E0B44201D0012000E021
:1021F0000020FFF7B5F93855641CE4B2AC42F3D3C4
:10220000BDE8F041FFF73EBA2DE9F147594D0024F2
:102210004FF00A0A287883B0401CC0B2B0FBFAF233
:102220000AFB1201544EA046287009B10A2877D241
:1022300048F24E19012203A94846FFF7B5FF9DF861
:102240000C004FF0000701060AD500F00F00062829
:1022500006D28DF80470012201A9484600F0B8F8B2
:102260009DF80C0001075BD000F00F01062957D242
:10227000FF2088408DF80400C04396F8209040F07D
:10228000C00086F82000B089B082F08AF0834FF059
:10229000010896F8201008FA04F0014225D03748CA
:1022A0000422694630F81400FFF77EFF96F83000EC
:1022B0009DF80110C0079DF8000000EB012106EB1E
:1022C00044000AD0C1829DF802109DF8032001EB62
:1022D0000221C1F54871818107E081819DF80210DA
:1022E0009DF8032001EB0221C182641CE4B2052C9D
:1022F000CFD32349B2894FF001080B8830469A4268
:1023000003D8C28A49888A4209D99DF80C1001F085
:102310000F0101290BD9C1898181018BF1822F70B5
:102320009DF80C0000F08F0080280AD018E0818A08
:102330008181C18BC18280218DF80C1086F820909C
:10234000EEE796F82000010602D520F0800005E0B7
:102350004FF6FF71B181F18200F0E00086F82000B5
:102360002878F02801D985F800A004B04046BDE8DF
:10237000F0870000FD04002004050020F87A010821
:10238000444B002008B500218DF800108DF80100A5
:102390000E489DF80020435C491C1A44C9B28DF8D0
:1023A0000020B829F5D3D0B2C043401C8DF80000FE
:1023B000B822064948F2470000F00AF802226946AE
:1023C00048F2FF0000F004F8002008BD407A010840
:1023D0002DE9F04115460E4604460027FFF72CF97B
:1023E0002820FFF7F5F8FFF76FF9200AFFF7F0F85C
:1023F000FFF76AF9E0B2FFF7EBF8FFF765F90024A1
:1024000008E0305DFFF7E4F8FFF75EF9070003D15D
:10241000641CE4B2AC42F4D3FFF734F93846BDE8AB
:10242000F08100000C49C86800280CDC0B4890F8CB
:10243000282042B990F854202AB990F8802012B987
:1024400090F8AC0028B148788978084302D002207F
:10245000704701200DF03CB8080100203C4A0020E4
:1024600030B40C4601461546500700D0012000EB61
:10247000D50010FB05F0C2B208784B78812809D34B
:10248000402B07D3FF2B05D0FF2803D07F2B0CD286
:10249000403B0BE00023184603E05B1C04F8010BF3
:1024A000DBB29342F9D330BC7047413B8138D9B29B
:1024B000C0B2C0EB401303EB801001EB400050436F
:1024C00009490C2D0AD0102D0BD0182DEBD1D1F8C5
:1024D00019100144204630BC09F0EABAD1F80910BD
:1024E000F7E7D1F81110F4E760690020FEE700007B
:1024F00070B50D4C0025C4F8A0520C48016821F4B9
:1025000040210160016841F480210160C4F8A452B7
:10251000022004F528740AF05BF8012020600220F4
:102520000AF056F8256070BD008040420004024069
:102530001CB50121022006F02DFB4FF44070012450
:1025400000908DF8044000208DF8060003208DF8DF
:1025500005008DF8074069460448FFF741FD04482F
:10256000C0F8A042C0F8A4421CBD00000004024014
:102570000080404270B50D4C0026C4F8A0620C48A3
:10258000016821F440210160016841F4802101606B
:102590000125C4F8A452022004F528740AF018F8A2
:1025A000256002200AF014F8266070BD00804042C9
:1025B000000402402DE9F0478146164800240168D6
:1025C00021F44021016001680160134E2546274631
:1025D0004FF00108C6F8A072022009F0F9FFC6F812
:1025E000A0826006040ED6F8240208B1641CE4B28E
:1025F000012009F0EDFF6D1CEDB2082DEAD3B9F111
:10260000000F04D0FFF774FF2046BDE8F087FFF706
:10261000B1FFF9E700040240008040422DE9F0419B
:1026200005461448016821F440210160016841F425
:1026300080210160104E0027C6F8A0723C464FF082
:102640000108E809C6F8A4026806050E022009F090
:10265000BFFFC6F8A082022009F0BAFFC6F8A07238
:10266000022009F0B5FF641CE4B2082CE9D3BDE8F0
:10267000F0810000000402400080404270B50D4827
:10268000016821F440210160016841F4802101606A
:10269000094C0120C4F8A402C4F8A002042004F5E7
:1026A000287409F095FF00256560042009F090FF6B
:1026B000256070BD00040240008040420E4810B505
:1026C000016821F440210160016841F4802101602A
:1026D0000A4C0020C4F8A002C4F8A402042004F5A7
:1026E000287409F075FF012020606060BDE810408B
:1026F000042009F06DBF0000000402400080404249
:1027000070B512480024016821F44021016001687D
:1027100001600F4D0126C5F8A462304609F058FF4C
:10272000C5F8A062012009F053FF07E0641CE4B281
:10273000FA2C03D9FFF7C2FF012070BDD5F824029F
:102740000028F3D1C5F8A00270BD000000040240CB
:102750000080404270B519480024194D0121846160
:102760004162AC606C60FEF765FC2869022806D106
:10277000124802212C3084614162FEF75BFC114A51
:10278000002000EB800102EB8101401C0C734C73B4
:102790003228F6DB094A0021B03A01EB410000EB98
:1027A000C10002EB8000846180F8284044614462EB
:1027B000C0E90714491C0329EFDD70BDEC4A002075
:1027C00008010020544600201CB504460021204882
:1027D00000910191008902041E4802600D224260AE
:1027E0004022C0E902211101016106F011FC1A49E1
:1027F00008680190024601E00A68019212F0450F54
:10280000FAD0012006F0BEFB20B1012006F092FBB9
:1028100001201CBD042006F0B5FB20B1042006F009
:1028200089FB03201CBD0C48243800680D2801D00A
:1028300010201CBD40F2FF5006F07CFB06482038FB
:1028400000680090C0F34320207000201CBD0000F1
:1028500038050020704B0020342C01401CB50121AC
:10286000112006F097F97C20009000208DF80400DC
:1028700003208DF8050001248DF8074069460448BF
:10288000FFF7AEFB694603480094FFF7A9FB1CBDA8
:1028900000100240000002402DE9F041414CDFF8F9
:1028A0000881424E05004FF0010701D0277001E07A
:1028B0002078E8B110213046FFF7DEFBF8B108219F
:1028C0003046FFF7D9FBD0B104213046FFF7D4FBE7
:1028D000A8B101214046FFF7CFFB80B1202130464F
:1028E000FFF7CAFB58B140213046FFF7C5FB30B1B6
:1028F00010213046FFF7C0FB012832D050E015B957
:10290000142009F043FE0020207020213046FFF7FC
:10291000B3FBC8B110213046FFF7AEFBB8B10821B8
:102920003046FFF7A9FBA0B104213046FFF7A4FB16
:1029300088B101214046FFF79FFB70B1402130462E
:10294000FFF79AFB58B12BE00520BDE8F08101208C
:10295000FBE70220F9E70320F7E70420F5E706206C
:10296000F3E708213046FFF787FB012818D104213F
:102970003046FFF781FB012812D101214046FFF7C5
:102980007BFB01280CD120213046FFF775FB012885
:1029900006D140213046FFF76FFB012800D1277098
:1029A0000020D2E7FC04002000000240001002409A
:1029B000C0F34511C20AC00200EB4110104480B2BE
:1029C000704700002DE9F043184F06460024388870
:1029D0007D884543B888A0F5D041043902D1B87943
:1029E000012808D00021084603F0C2FF04F08EF948
:1029F0004FF0D84016E00020B8714FF02A09A7F830
:102A00000A904FF02B08A7F80C80014603F0B0FFA6
:102A10000120B871A7F80A80A7F80C90E6E7A0F8A3
:102A20008060641CAC42FAD3BDE8F083444B0020C4
:102A30002DE9F0478246A2EB0A00401C0E4685B203
:102A4000981B401C87B200244FF0D849DDF8208045
:102A500015E0301981B2504603F08AFF04F056F9B0
:102A60000020494607E004FB050338F81320A1F8CD
:102A70008020401C80B2A842F5D3641CA4B2BC42A2
:102A8000E7D3BDE8F08700002DE9F04F4A492A233B
:102A90002B24898845F2105A4FF4305B4FF4285E9E
:102AA0004FF448754FF0F00C49F241394FF4A077DC
:102AB00045F210364FF4F07280B13F484FF00108F4
:102AC000494580F806800780A0F802C001D0B142D5
:102AD0003ED12C2505814381848157E036484FF053
:102AE0000008494580F80680A0F800C0478006D05D
:102AF000A1F5D04CBCF1040C01D0B1420CD12C2575
:102B000005814381A1F5D0438481043B01D0B142CA
:102B100044D10780428041E0514507D1A0F808B078
:102B2000A0F80AE04FF42C5181810EE0A1F5C856BF
:102B3000633E06D022210181202141812121818112
:102B40002CE02C210181448183810280458025E095
:102B5000A1F5D04CBCF1040C09D051450BD1A0F823
:102B600008B0A0F80AE04FF42C53838121E02C2513
:102B70000581448109E0A1F5C85CBCF1630C12D069
:102B8000222303812123438120238381A1F5D04384
:102B9000043B01D0B14201D102804780BDE8F04F33
:102BA000002003F0E3BD4FF02C0CA0F808C04381D7
:102BB000848105804280E9E7444B00202DE9FE4FE7
:102BC0000026A2EB000882465F1A701E3546894631
:102BD000B8F1000F02DD4FF0010102E003D14FF028
:102BE0000001019102E0C8F100080190002F02DD10
:102BF0004FF0010002E003D14FF00000009002E02E
:102C0000C7F1000700904046B84501DD044600E0EA
:102C10003C46601C4FF0000B029015E01FFA89F152
:102C20001FFA8AF000F016F846443D44A64202DD41
:102C30000199361B8A44A54202DD00992D1B894467
:102C40000BF101001FFA80FB02998B45E6DDBDE820
:102C5000FE8F000000B503F08BFE04F057F8034828
:102C60004FF0D8410088A1F8800000BDF804002092
:102C70002DE9FC4F80460024154603200F46A0EBAB
:102C8000450649E0781B81B208EB040A01901FFA5F
:102C90008AF0FFF7DFFF381B81B208EB05090090CF
:102CA0001FFA89F0FFF7D6FF07EB040B1FFA8BF131
:102CB0001FFA89F0FFF7CEFF07EB05091FFA89F12C
:102CC0001FFA8AF0FFF7C6FFA8EB040A1FFA89F182
:102CD0001FFA8AF0FFF7BEFFA8EB05091FFA8BF178
:102CE0001FFA89F0FFF7B6FF019881B21FFA8AF048
:102CF000FFF7B0FF009881B21FFA89F0FFF7AAFF33
:102D0000641C002E03DA06EB8406B61D04E0601B8B
:102D100006EB80066D1E0A36AC42B3DDBDE8FC8FC3
:102D20002DE9F043414D91460C460246060AA9881A
:102D30002846A1F5134340894FEA1428413B17D098
:102D4000A1F5A643103B13D0A1F5AA43103B13D025
:102D50002E46A1F5C857B3793688B61A761E633F5A
:102D600023D0A1F5D047043F3AD0012B4DD04DE000
:102D700003F0C0FF304639E003F0BCFF304603F0FB
:102D8000ADFF6889401C80B203F0B4FFD0B203F0FD
:102D9000A5FFA88903F0AEFF404603F09FFFA88976
:102DA000401C80B203F0A6FF2BE003B9B2B203F0DF
:102DB000A1FF160A304603F091FFD0B203F08EFF58
:102DC000304603F08BFFD0B203F088FFA88903F0F0
:102DD00091FF404603F082FFE0B203F07FFF0DE079
:102DE000012B00D1B2B203F085FF100A03F076FF89
:102DF000D0B203F073FFA88903F07CFF404603F0D4
:102E00006DFFE0B203F06AFF07E0B2B2114603F0D3
:102E100087FFA889214603F083FF4FF0D840298916
:102E200020F87E1FA0F80290BDE8F083444B0020FC
:102E30002DE9F843204D1F468046AB88089EA3F538
:102E4000D040043802D1A879012807D0A2EB0800AD
:102E5000401C85B20C464FF0D84929E02B88084623
:102E6000991A0024AC713A462A24A3EB08036C811A
:102E70002B27491E5B1EAF8189B29BB20096FFF7DC
:102E8000D7FF0120A8716F81AC81BDE8F88321468E
:102E9000404603F06DFD03F039FF0020494603E092
:102EA000A1F88060401C80B2A842F9D3641CA4B28F
:102EB000BC42ECD9E9E70000444B00202DE9F04F7B
:102EC000A1B0002401217A201F9405F063FE0121A6
:102ED000084605F077FE4FF40040009001208DF881
:102EE00004008DF8064002208DF8050001208DF8C1
:102EF00007006946FE48FFF773F84CF23370009004
:102F000002208DF804008DF8064003208DF805009E
:102F100001208DF807006946F648FFF761F84FF683
:102F20008070009002208DF804008DF80640032088
:102F30008DF805000120F04D8DF807006946284600
:102F4000FFF74EF8A814009002208DF804008DF8C9
:102F5000064003208DF805000120E84E8DF807009B
:102F600069463046FFF73CF8A814009002208DF81F
:102F700004008DF8064003208DF805000120E04F85
:102F80008DF8070069463846FFF72AF80C22002121
:102F9000D848FFF761F80C220121D648FFF75CF80A
:102FA0000C220421D348FFF757F80C220521D14801
:102FB000FFF752F80C220821CE48FFF74DF80C22FB
:102FC0000921CC48FFF748F80C220A21C948FFF72D
:102FD00043F80C220E21C748FFF73EF80C220F21C0
:102FE000C448FFF739F80C2207212846FFF734F8C8
:102FF0000C2208212846FFF72FF80C220921284629
:10300000FFF72AF80C220A212846FFF725F80C22A0
:103010000B212846FFF720F80C2211462846FFF71F
:103020001BF80C220D212846FFF716F80C220E2162
:103030002846FFF711F80C220F212846FFF70CF85D
:103040000C2211463046FFF707F80C22114638468D
:10305000FFF702F80F20CDE911043C20CDE913045D
:10306000159409201694CDE917400820CDE91940A0
:103070001B941C940620CDE902041D941E9410207C
:10308000CDE9044006940002CDE90A400894079473
:103090008000CDE90C40099411A8CDE90E4018A894
:1030A000109002A8FEF742FD01210620FEF72EFD3A
:1030B000322009F06BFA0121002003F031FE3220AA
:1030C00009F064FA002003F01FFB8E4A4FF0204AFB
:1030D0004FF6FF7B908049F2413545F2103645F2BC
:1030E000105441F6631846F60407FF2804D35845E8
:1030F00002D0B0F5134F74D1D32003F0FBFD03F0E1
:1031000077FA908003F074FA908003F071FA0BEA7A
:103110000020D946908003F06BFA91880843908094
:10312000A8425ED0BF2003F0E5FD03F061FA908075
:1031300003F05EFA908003F05BFA908003F058FA97
:1031400009EA0020908003F053FA918808439080A8
:10315000B84246D0D42003F0CDFD03F049FA908068
:1031600003F046FA908003F043FA09EA00209080C9
:1031700003F03EFA918808439080B04231D04FF47A
:103180005A4003F0B7FD03F033FA90804FF45B40F0
:1031900003F0B0FD03F02CFA09EA002090804FF410
:1031A0005C4003F0A7FD03F023FA91880843908068
:1031B000B0F5004F39D0A04213D0A12003F09AFD02
:1031C00003F016FA908003F013FA09EA00209080C9
:1031D00003F00EFA91880843A0F5AE419080613962
:1031E00020D080B2A84205D0B04203D0A04201D086
:1031F00040451CD1DAF81C11504621F00F01CAF8E5
:103200001C11DAF81C1121F47061CAF81C11DAF8EB
:103210001C1141F00301CAF81C11DAF81C1141F429
:10322000007121E0A2F80480E4E79480E2E7B8426C
:1032300003D0A0F54541053918D1DAF81C115046E4
:1032400021F00F01CAF81C11DAF81C1121F4706189
:10325000CAF81C11DAF81C1141F00A01CAF81C1155
:10326000DAF81C1141F44061C0F81C1191469188B4
:1032700025A0FDF7BBF8B9F80400A8427DD1CF2006
:1032800003F038FD002003F029FDC12003F026FDE6
:10329000302003F023FDED2003F02CFD642003F02B
:1032A0001DFD032003F01AFD122003F017FD8120FD
:1032B00003F014FDE82003F01DFD852003F00EFD52
:1032C000102003F00BFD7A2003F008FDCB2003F063
:1032D00011FD392003F002FD2C2003F0FFFC00203B
:1032E00003F0FCFC342003F0F9FC022014E00000A1
:1032F00000040240000C0240001002400014024092
:1033000000180240444B0020204C43442049443ADA
:1033100025780D0A0000000003F0E0FCF72003F020
:10332000E9FC202003F0DAFCEA2003F0E3FC0020B3
:1033300003F0D4FC002003F0D1FCC02003F0DAFC41
:103340001B2003F0CBFCC12003F0D4FC012003F0D0
:10335000C5FCC52003F0CEFC302003F0BFFC3020BC
:1033600003F0BCFCC72003F0C5FCB72003F0B6FC9B
:10337000362003F0BFFC482000E0A7E003F0AEFCDD
:103380003A2003F0B7FC552003F0A8FCB12003F06D
:10339000B1FC002003F0A2FC1A2003F09FFCB62031
:1033A00003F0A8FC0A2003F099FCA22003F096FC8D
:1033B000F22003F09FFC002003F090FC262003F095
:1033C00099FC012003F08AFCE02003F093FC0F201D
:1033D00003F084FC2A2003F081FC282003F07EFC0B
:1033E000082003F07BFC0E2003F078FC082003F09B
:1033F00075FC542003F072FCA92003F06FFC4320FD
:1034000003F06CFC0A2003F069FC0F2003F066FC5B
:10341000002003F063FC002003F060FC002003F0B8
:103420005DFC002003F05AFCE12003F063FC002067
:1034300003F054FC152003F051FC172003F04EFC60
:10344000072003F04BFC112003F048FC062003F09A
:1034500045FC2B2003F042FC562003F03FFC3C20AF
:1034600003F03CFC052003F039FC102003F036FC8F
:103470000F2003F033FC3F2003F030FC3F2003F02B
:103480002DFC0F2003F02AFC2B2003F033FC00203E
:1034900003F024FC002003F021FC012003F01EFCBB
:1034A0003F2003F01BFC2A2003F024FC002003F043
:1034B00015FC002003F012FC002003F00FFCEF20AD
:1034C00003F00CFC112003F015FCA5E0B8427CD100
:1034D000112003F00FFC142009F058F8D02003F05D
:1034E00009FC072003F0FAFB422003F0F7FB1D2044
:1034F00003F0F4FBD12003F0FDFB002003F0EEFB12
:103500001A2003F0EBFB092003F0E8FBD22003F0C4
:10351000F1FB012003F0E2FB222003F0DFFBC020DF
:1035200003F0E8FB102003F0D9FB3B2003F0D6FBAF
:10353000002003F0D3FB022003F0D0FB112003F0A6
:10354000CDFBC52003F0D6FB032003F0C7FBC8204A
:1035500003F0D0FB002003F0C1FB252003F0BEFBED
:10356000212003F0BBFB052003F0B8FB002003F093
:10357000B5FB0A2003F0B2FB652003F0AFFB25206A
:1035800003F0ACFB772003F0A9FB502003F0A6FB6F
:103590000F2003F0A3FB002003F0A0FBF82003F0B2
:1035A000A9FB012003F09AFBFE2003F0A3FB0020FF
:1035B00003F094FB022003F091FB202003F09AFB20
:1035C000362003F097FB082000E02BE003F086FB99
:1035D0003A2003F08FFB552003F080FB2B2003F0F3
:1035E00089FB002003F07AFB002003F077FB012029
:1035F00003F074FB3F2003F071FB2A2003F07AFBF9
:10360000002003F06BFB002003F068FB012003F0B7
:1036100065FBDF2003F062FB782008F0B7FF29206C
:1036200001F0FBBEB0427CD1ED2003F063FB012032
:1036300003F054FBFE2003F051FBEE2003F05AFB95
:10364000DE2003F04BFB212003F048FBF12003F0C8
:1036500051FB012003F042FBDF2003F04BFB102065
:1036600003F03CFBC42003F045FB8F2003F036FB46
:10367000C62003F03FFB002003F030FBE22003F004
:103680002DFBE22003F02AFBE22003F027FBBF2002
:1036900003F030FBAA2003F021FBB02003F02AFB4B
:1036A0000D2003F01BFB002003F018FB0D2003F09E
:1036B00015FB002003F012FB112003F00FFB00208C
:1036C00003F00CFB192003F009FB002003F006FBBC
:1036D000212003F003FB002003F000FB2D2003F06A
:1036E000FDFA002003F0FAFA3D2003F0F7FA00207B
:1036F00003F0F4FA5D2003F0F1FA002003F0EEFA93
:103700005D2003F0EBFA002003F0E8FAB12003F0AB
:10371000F1FA802003F0E2FA002003F0DFFA8B20B8
:1037200000E0FCE303F0DAFA002003F0D7FA962079
:1037300003F0D4FA002003F0D1FAB22003F0DAFA51
:10374000002003F0CBFA002003F0C8FA022003F0B7
:10375000C5FA002003F0C2FA032003F0BFFA0020EC
:1037600003F0BCFAB32003F0C5FA002003F0B6FA68
:10377000002003F0B3FA002003F0B0FA002003F0B9
:10378000ADFA002003F0AAFA002003F0A7FA002007
:1037900003F0A4FA002003F0A1FA002003F09EFA3F
:1037A000002003F09BFA002003F098FA002003F0B9
:1037B00095FA002003F092FA002003F08FFA00201F
:1037C00003F08CFA002003F089FA002003F086FA57
:1037D000002003F083FA002003F080FA002003F0B9
:1037E0007DFA002003F07AFA002003F077FA002037
:1037F00003F074FA002003F071FAB42003F07AFAAF
:103800008B2003F06BFA002003F068FA962003F097
:1038100065FA002003F062FAA12003F05FFA0020AD
:1038200003F05CFAB52003F065FA022003F056FAC3
:10383000002003F053FA032003F050FA002003F0B5
:103840004DFA042003F04AFA002003F047FAB620AC
:1038500003F050FA002003F041FA002003F03EFA92
:10386000B72003F047FA002003F038FA002003F0F5
:1038700035FA3F2003F032FA002003F02FFA5E20E1
:1038800003F02CFA002003F029FA642003F026FA52
:10389000002003F023FA8C2003F020FA002003F02C
:1038A0001DFAAC2003F01AFA002003F017FADC200E
:1038B00003F014FA002003F011FA702003F00EFA5E
:1038C000002003F00BFA902003F008FA002003F028
:1038D00005FAEB2003F002FA002003F0FFF9DC20E8
:1038E00003F0FCF9002003F0F9F9B82003F002FA24
:1038F000002003F0F3F9002003F0F0F9002003F0BA
:10390000EDF9002003F0EAF9002003F0E7F90020C8
:1039100003F0E4F9002003F0E1F9002003F0DEF900
:10392000BA2003F0E7F9242003F0D8F9002003F0CF
:10393000D5F9002003F0D2F9002003F0CFF9C1201F
:1039400003F0D8F9202003F0C9F9002003F0C6F9EC
:10395000542003F0C3F9002003F0C0F9FF2003F066
:10396000BDF9002003F0BAF9C22003F0C3F90A2020
:1039700003F0B4F9002003F0B1F9042003F0AEF92C
:10398000002003F0ABF9C32003F0B4F93C2003F0AE
:10399000A5F9002003F0A2F93A2003F09FF90020D6
:1039A00003F09CF9392003F099F9002003F096F90F
:1039B000372003F093F9002003F090F93C2003F046
:1039C0008DF9002003F08AF9362003F087F90020F2
:1039D00003F084F9322003F081F9002003F07EF92E
:1039E0002F2003F07BF9002003F078F92C2003F05E
:1039F00075F9002003F072F9292003F06FF9002017
:103A000003F06CF9262003F069F9002003F066F951
:103A1000242003F063F9002003F060F9242003F070
:103A20005DF9002003F05AF9232003F057F9002034
:103A300003F054F93C2003F051F9002003F04EF953
:103A4000362003F04BF9002003F048F9322003F050
:103A500045F9002003F042F92F2003F03FF9002040
:103A600003F03CF92C2003F039F9002003F036F97B
:103A7000292003F033F9002003F030F9262003F069
:103A80002DF9002003F02AF9242003F027F9002063
:103A900003F024F9242003F021F9002003F01EF99B
:103AA000232003F01BF9002003F018F9C42003F0D1
:103AB00021F9622003F012F9002003F00FF905202C
:103AC00003F00CF9002003F009F9842003F006F953
:103AD000002003F003F9F02003F000F9002003F0C8
:103AE000FDF8182003F0FAF8002003F0F7F8A420FE
:103AF00003F0F4F8002003F0F1F8182003F0EEF8DA
:103B0000002003F0EBF8502003F0E8F8002003F069
:103B1000E5F80C2003F0E2F8002003F0DFF81720AE
:103B200003F0DCF8002003F0D9F8952003F0D6F874
:103B3000002003F0D3F8F32003F0D0F8002003F0C6
:103B4000CDF8E62003F0CAF8002003F0C7F8C5203E
:103B500003F0D0F8322003F0C1F8002003F0BEF8E3
:103B6000442003F0BBF8002003F0B8F8652003F010
:103B7000B5F8002003F0B2F8762003F0AFF800208B
:103B800003F0ACF8882003F0A9F8002003F0A6F8B1
:103B9000C62003F0AFF8202003F0A0F8002003F0C7
:103BA0009DF8172003F09AF8002003F097F8012001
:103BB00003F094F8002003F091F8C72003F09AF87E
:103BC000002003F08BF8002003F088F8002003F0B9
:103BD00085F8002003F082F8C82003F08BF800205D
:103BE00003F07CF8002003F079F8002003F076F869
:103BF000002003F073F8C92003F07CF8002003F0E4
:103C00006DF8002003F06AF8002003F067F8002048
:103C100003F064F8002003F061F8002003F05EF880
:103C2000002003F05BF8002003F058F8002003F0B8
:103C300055F8002003F052F8002003F04FF8002060
:103C400003F04CF8002003F049F8002003F046F898
:103C5000002003F043F8002003F040F8E02003F0D8
:103C600049F8162003F03AF8002003F037F81C203A
:103C700003F034F8002003F031F8212003F02EF88F
:103C8000002003F02BF8362003F028F8002003F082
:103C900025F8462003F022F8002003F01FF85220F8
:103CA00003F01CF8002003F019F8642003F016F864
:103CB000002003F013F87A2003F010F8002003F03E
:103CC0000DF88B2003F00AF8002003F007F8992084
:103CD00003F004F8002003F001F8A82002F0FEFF32
:103CE000002002F0FBFFB92002F0F8FF002002F0F4
:103CF000F5FFC42002F0F2FF002002F0EFFFCA201F
:103D000002F0ECFF002002F0E9FFD22002F0E6FF13
:103D1000002002F0E3FFD92002F0E0FF002002F0D3
:103D2000DDFFE02002F0DAFF002002F0D7FFF320F1
:103D300002F0D4FF002002F0D1FFE12002F0DAFF10
:103D4000162002F0CBFF002002F0C8FF1C2002F07A
:103D5000C5FF002002F0C2FF222002F0BFFF0020BA
:103D600002F0BCFF362002F0B9FF002002F0B6FFDF
:103D7000452002F0B3FF002002F0B0FF522002F015
:103D8000ADFF002002F0AAFF642002F0A7FF002090
:103D900002F0A4FF7A2002F0A1FF002002F09EFFB3
:103DA0008B2002F09BFF002002F098FF992002F088
:103DB00095FF002002F092FFA82002F08FFF002064
:103DC00002F08CFFB92002F089FF002002F086FF8C
:103DD000C42002F083FF002002F080FFCA2002F01E
:103DE0007DFF002002F07AFFD22002F077FF002052
:103DF00002F074FFD82002F071FF002002F06EFF85
:103E0000E02002F06BFF002002F068FFF32002F0D8
:103E100065FF002002F062FFE22002F06BFF052048
:103E200002F05CFF002002F059FF0B2002F056FF69
:103E3000002002F053FF1B2002F050FF002002F090
:103E40004DFF342002F04AFF002002F047FF4420DB
:103E500002F044FF002002F041FF4F2002F03EFF3D
:103E6000002002F03BFF612002F038FF002002F04A
:103E700035FF792002F032FF002002F02FFF88206A
:103E800002F02CFF002002F029FF972002F026FF0D
:103E9000002002F023FFA62002F020FF002002F005
:103EA0001DFFB72002F01AFF002002F017FFC2200A
:103EB00002F014FF002002F011FFC72002F00EFFF5
:103EC000002002F00BFFD12002F008FF002002F0DA
:103ED00005FFD62002F002FF002002F0FFFEDD20E9
:103EE00002F0FCFE002002F0F9FEF32002F0F6FEE4
:103EF000002002F0F3FEE32002F0FCFE052002F0B9
:103F0000EDFE002002F0EAFE0A2002F0E7FE0020AB
:103F100002F0E4FE1C2002F0E1FE002000E0FDE2E1
:103F200002F0DCFE332002F0D9FE002002F0D6FEC3
:103F3000442002F0D3FE002002F0D0FE502002F018
:103F4000CDFE002002F0CAFE622002F0C7FE002073
:103F500002F0C4FE782002F0C1FE002002F0BEFE96
:103F6000882002F0BBFE002002F0B8FE972002F08D
:103F7000B5FE002002F0B2FEA62002F0AFFE002047
:103F800002F0ACFEB72002F0A9FE002002F0A6FE6F
:103F9000C22002F0A3FE002002F0A0FEC72002F023
:103FA0009DFE002002F09AFED12002F097FE002034
:103FB00002F094FED52002F091FE002002F08EFE69
:103FC000DD2002F08BFE002002F088FEF32002F0DC
:103FD00085FE002002F082FEE42002F08BFE01202C
:103FE00002F07CFE002002F079FE012002F076FE55
:103FF000002002F073FE022002F070FE002002F0AA
:104000006DFE2A2002F06AFE002002F067FE3C20CE
:1040100002F064FE002002F061FE4B2002F05EFE22
:10402000002002F05BFE5D2002F058FE002002F04E
:1040300055FE742002F052FE002002F04FFE842054
:1040400002F04CFE002002F049FE932002F046FEF2
:10405000002002F043FEA22002F040FE002002F009
:104060003DFEB32002F03AFE002002F037FEBE20F3
:1040700002F034FE002002F031FEC42002F02EFED9
:10408000002002F02BFECD2002F028FE002002F0DE
:1040900025FED32002F022FE002002F01FFEDD20CC
:1040A00002F01CFE002002F019FEF32002F016FEC2
:1040B000002002F013FEE52002F01CFE002002F0BA
:1040C0000DFE002002F00AFE002002F007FE002094
:1040D00002F004FE022002F001FE002002F0FEFDCC
:1040E000292002F0FBFD002002F0F8FD3C2002F048
:1040F000F5FD002002F0F2FD4B2002F0EFFD002064
:1041000002F0ECFD5D2002F0E9FD002002F0E6FD8A
:10411000742002F0E3FD002002F0E0FD842002F0B4
:10412000DDFD002002F0DAFD932002F0D7FD002033
:1041300002F0D4FDA22002F0D1FD002002F0CEFD5D
:10414000B32002F0CBFD002002F0C8FDBE2002F03B
:10415000C5FD002002F0C2FDC42002F0BFFD00201A
:1041600002F0BCFDCD2002F0B9FD002002F0B6FD4A
:10417000D32002F0B3FD002002F0B0FDDC2002F0FD
:10418000ADFD002002F0AAFDF32002F0A7FD002003
:1041900002F0A4FDE62002F0ADFD112002F09EFD2C
:1041A000002002F09BFD342002F098FD002002F078
:1041B00095FD562002F092FD002002F08FFD762042
:1041C00002F08CFD002002F089FD772002F086FDD0
:1041D000002002F083FD662002F080FD002002F046
:1041E0007DFD882002F07AFD002002F077FD992005
:1041F00002F074FD002002F071FDBB2002F06EFDA4
:10420000002002F06BFD992002F068FD002002F012
:1042100065FD662002F062FD002002F05FFD552082
:1042200002F05CFD002002F059FD552002F056FD21
:10423000002002F053FD452002F050FD002002F066
:104240004DFD432002F04AFD002002F047FD4420CE
:1042500002F044FD002002F041FDE72002F04AFD9B
:10426000322002F03BFD002002F038FD552002F024
:1042700035FD002002F032FD762002F02FFD0020F7
:1042800002F02CFD662002F029FD002002F026FD40
:10429000672002F023FD002002F020FD672002F0DD
:1042A0001DFD002002F01AFD872002F017FD0020FE
:1042B00002F014FD992002F011FD002002F00EFD25
:1042C000BB2002F00BFD002002F008FD992002F057
:1042D00005FD002002F002FD772002F0FFFC002027
:1042E00002F0FCFC442002F0F9FC002002F0F6FC95
:1042F000562002F0F3FC002002F0F0FC232002F034
:10430000EDFC002002F0EAFC332002F0E7FC002084
:1043100002F0E4FC452002F0E1FC002002F0DEFCAB
:10432000E82002F0E7FC002002F0D8FC002002F0B8
:10433000D5FC992002F0D2FC002002F0CFFC8720AF
:1043400002F0CCFC002002F0C9FC882002F0C6FC80
:10435000002002F0C3FC772002F0C0FC002002F035
:10436000BDFC662002F0BAFC002002F0B7FC8820F9
:1043700002F0B4FC002002F0B1FCAA2002F0AEFC76
:10438000002002F0ABFCBB2002F0A8FC002002F0F1
:10439000A5FC992002F0A2FC002002F09FFC662000
:1043A00002F09CFC002002F099FC552002F096FCE3
:1043B000002002F093FC552002F090FC002002F057
:1043C0008DFC442002F08AFC002002F087FC44208F
:1043D00002F084FC002002F081FC552002F07EFCFB
:1043E000002002F07BFCE92002F084FCAA2002F00D
:1043F00075FC002002F072FC002002F06FFC00202F
:1044000002F06CFC002002F075FCAA2002F066FCB1
:10441000CF2002F06FFC002002F060FC002002F0D0
:104420005DFC002002F05AFC002002F057FC002046
:1044300002F054FC002002F051FC002002F04EFC7F
:10444000002002F04BFC002002F048FC002002F0AB
:1044500045FC002002F042FC002002F03FFC00205E
:1044600002F03CFC002002F039FC002002F036FC97
:10447000002002F033FC002002F030FCF02002F0BB
:1044800039FC002002F02AFC502002F027FC00201A
:1044900002F024FC002002F021FC002002F01EFCAF
:1044A000F32002F027FC002002F018FCF92002F0B3
:1044B00021FC062002F012FC102002F00FFC292043
:1044C00002F00CFC002002F009FC3A2002F012FC81
:1044D000552002F003FC112002F00CFC642008F0CF
:1044E00055F8292002F006FC352002F003FC0020DC
:1044F00002F0F4FB512002F0FDFBFF2002F0EEFB86
:10450000532002F0F7FB2C2002F0E8FB552002F0CC
:10451000F1FB822002F0E2FB2C20FCE3A0427DD1E3
:104520004FF470435521184602F0FAFB4FF2010494
:10453000AA21204602F0F4FB651C5221284602F015
:10454000EFFBA61C0821304602F0EAFBE71C012124
:10455000384602F0E5FB0D214FF4304002F0E0FB5D
:104560000D214BF2010002F0DBFB0D214BF20200AA
:1045700002F0D6FB4FF436483421404602F0D0FB1F
:1045800034214BF2016002F0CBFB34214BF202608C
:1045900002F0C6FB4FF431490D21484602F0C0FB42
:1045A0004BF2011A0D21504602F0BAFB0D214BF2DD
:1045B000021002F0B5FB34214FF4374002F0B0FB9B
:1045C00034214BF2017002F0ABFB34214BF202704C
:1045D00002F0A6FB00214FF4324002F0A1FB0021C3
:1045E0004BF2012002F09CFB00214BF2022002F072
:1045F00097FB24214FF4384002F092FB24214BF624
:10460000010002F08DFB24214BF6020002F088FB32
:1046100001214FF43F4002F083FB00E0FEE30F2155
:104620004FF4334002F07CFB0F214BF2013002F0DB
:1046300077FB0F214BF2023002F072FB34214FF472
:10464000394002F06DFB34214BF6011002F068FB9B
:1046500034214BF6021002F063FB08214FF4354081
:1046600002F05EFB08214BF2015002F059FB0821D9
:104670004BF2025002F054FB03214FF4424002F08F
:104680004FFB24214FF43A4002F04AFB24214BF621
:10469000012002F045FB24214BF6022002F040FBF2
:1046A00000214FF43C4002F03BFB78214BF60140E7
:1046B00002F036FB00214BF6024002F031FB0021F4
:1046C0004FF43D4002F02CFB78214BF6015002F0F4
:1046D00027FB00214BF6025002F022FB00214FF491
:1046E0003E4002F01DFB64214BF6016002F018FB16
:1046F00000214FF4514002F013FB33214DF2011021
:1047000002F00EFB00214DF2021002F009FB3421F1
:104710004DF2031002F004FB00214DF2041002F0F0
:10472000FFFA3A214DF2051002F0FAFA00214DF29B
:10473000061002F0F5FA4A214DF2071002F0F0FAE5
:1047400000214DF2081002F0EBFA5C214DF2091045
:1047500002F0E6FA00214DF20A1002F0E1FA81219E
:104760004DF20B1002F0DCFA00214DF20C1002F0B9
:10477000D7FAA6214DF20D1002F0D2FA00214DF227
:104780000E1002F0CDFAE5214DF20F1002F0C8FA3A
:1047900001214DF2101002F0C3FA13214DF2111055
:1047A00002F0BEFA01214DF2121002F0B9FA5421C2
:1047B0004DF2131002F0B4FA01214DF2141002F080
:1047C000AFFA82214DF2151002F0AAFA01214DF242
:1047D000161002F0A5FACA214DF2171002F0A0FA45
:1047E00002214DF2181002F09BFA00214DF219102F
:1047F00002F096FA02214DF21A1002F091FA01210C
:104800004DF21B1002F08CFA02214DF21C1002F046
:1048100087FA34214DF21D1002F082FA02214DF286
:104820001E1002F07DFA67214DF21F1002F078FA97
:1048300002214DF2201002F073FA84214DF2211072
:1048400002F06EFA02214DF2221002F069FAA42160
:104850004DF2231002F064FA02214DF2241002F00E
:104860005FFAB7214DF2251002F05AFA02214DF2FB
:10487000261002F055FACF214DF2271002F050FA1F
:1048800002214DF2281002F04BFADE214DF22910E0
:1048900002F046FA02214DF22A1002F041FAF2210A
:1048A0004DF22B1002F03CFA02214DF22C1002F0D6
:1048B00037FAFE214DF22D1002F032FA03214DF2AB
:1048C0002E1002F02DFA10214DF22F1002F028FACE
:1048D00003214DF2301002F023FA33214DF2311052
:1048E00002F01EFA03214DF2321002F019FA6D2186
:1048F0004DF2331002F014FA00214FF4524002F04E
:104900000FFA33214DF2012002F00AFA00214DF294
:10491000022002F005FA34214DF2032002F000FAE1
:1049200000214DF2042002F0FBF93A214DF205205E
:1049300002F0F6F900214DF2062002F0F1F94A21C9
:104940004DF2072002F0ECF900214DF2082002F0B0
:10495000E7F95C214DF2092002F0E2F900214DF265
:104960000A2002F0DDF981214DF20B2002F0D8F986
:1049700000214DF20C2002F0D3F9A6214DF20D20BA
:1049800002F0CEF900214DF20E2002F0C9F9E52126
:104990004DF20F2002F0C4F901214DF2102002F077
:1049A000BFF913214DF2112002F0BAF901214DF2A5
:1049B000122002F0B5F954214DF2132002F0B0F9A3
:1049C00001214DF2142002F0ABF982214DF21520A5
:1049D00002F0A6F901214DF2162002F0A1F9CA2138
:1049E0004DF2172002F09CF902214DF2182002F03E
:1049F00097F900214DF2192002F092F902214DF2AF
:104A00001A2002F08DF901214DF21B2002F088F9E5
:104A100002214DF21C2002F083F934214DF21D20B9
:104A200002F07EF902214DF21E2002F079F9672191
:104A30004DF21F2002F074F902214DF2202002F005
:104A40006FF984214DF2212002F06AF902214DF222
:104A5000222002F065F9A4214DF2232002F060F932
:104A600002214DF2242002F05BF9B7214DF22520FE
:104A700002F056F902214DF2262002F051F9CF2121
:104A80004DF2272002F04CF902214DF2282002F0CD
:104A900047F9DE214DF2292002F042F902214DF2C0
:104AA0002A2002F03DF9F2214DF22B2002F038F9D4
:104AB00002214DF22C2002F033F9FE214DF22D207F
:104AC00002F02EF903214DF22E2002F029F91021D7
:104AD0004DF22F2002F024F903214DF2302002F094
:104AE0001FF933214DF2312002F01AF903214DF262
:104AF000322002F015F96D214DF2332002F010F949
:104B000000214FF4534002F00BF933214DF20130F4
:104B100002F006F900214DF2023002F001F93421D1
:104B20004DF2033002F0FCF800214DF2043002F0A7
:104B3000F7F83A214DF2053002F0F2F800214DF27B
:104B4000063002F0EDF84A214DF2073002F0E8F8A5
:104B500000214DF2083002F0E3F85C214DF20930FB
:104B600002F0DEF800214DF20A3002F0D9F881217E
:104B70004DF20B3002F0D4F800214DF20C3002F06F
:104B8000CFF8A6214DF20D3002F0CAF800214DF207
:104B90000E3002F0C5F8E5214DF20F3002F0C0F8FA
:104BA00001214DF2103002F0BBF813214DF211300B
:104BB00002F0B6F801214DF2123002F0B1F85421A2
:104BC0004DF2133002F0ACF801214DF2143002F036
:104BD000A7F882214DF2153002F0A2F801214DF222
:104BE000163002F09DF8CA214DF2173002F098F805
:104BF00002214DF2183002F093F800214DF21930E5
:104C000002F08EF802214DF21A3002F089F80121EB
:104C10004DF21B3002F084F802214DF21C3002F0FC
:104C20007FF834214DF21D3002F07AF802214DF266
:104C30001E3002F075F867214DF21F3002F070F857
:104C400002214DF2203002F06BF884214DF2213028
:104C500002F066F802214DF2223002F061F8A42140
:104C60004DF2233002F05CF802214DF2243002F0C4
:104C700057F8B7214DF2253002F052F802214DF2DB
:104C8000263002F04DF8CF214DF2273002F048F8DF
:104C900002214DF2283002F043F8DE214DF2293096
:104CA00002F03EF802214DF22A3002F039F8F221EA
:104CB0004DF22B3002F034F802214DF22C3002F08C
:104CC0002FF8FE214DF22D3002F02AF803214DF28B
:104CD0002E3002F025F810214DF22F3002F020F88E
:104CE00003214DF2303002F01BF833214DF2313008
:104CF00002F016F803214DF2323002F011F86D2166
:104D00004DF2333002F00CF800214FF4544002F021
:104D100007F8332100E080E34DF2014002F000F893
:104D200000214DF2024001F0FBFF34214DF203401F
:104D300001F0F6FF00214DF2044001F0F1FF3A21AD
:104D40004DF2054001F0ECFF00214DF2064001F06C
:104D5000E7FF4A214DF2074001F0E2FF00214DF24A
:104D6000084001F0DDFF5C214DF2094001F0D8FF61
:104D700000214DF20A4001F0D3FF81214DF20B409A
:104D800001F0CEFF00214DF20C4001F0C9FFA62139
:104D90004DF20D4001F0C4FF00214DF20E4001F034
:104DA000BFFFE5214DF20F4001F0BAFF01214DF2A6
:104DB000104001F0B5FF13214DF2114001F0B0FF9A
:104DC00001214DF2124001F0ABFF54214DF213408E
:104DD00001F0A6FF01214DF2144001F0A1FF822154
:104DE0004DF2154001F09CFF01214DF2164001F0FB
:104DF00097FFCA214DF2174001F092FF02214DF2B8
:104E0000184001F08DFF00214DF2194001F088FF9C
:104E100002214DF21A4001F083FF00E000E301217E
:104E20004DF21B4001F07CFF02214DF21C4001F0CD
:104E300077FF34214DF21D4001F072FF02214DF247
:104E40001E4001F06DFF67214DF21F4001F068FF29
:104E500002214DF2204001F063FF84214DF22140F8
:104E600001F05EFF02214DF2224001F059FFA42122
:104E70004DF2234001F054FF02214DF2244001F095
:104E80004FFFB7214DF2254001F04AFF02214DF2BC
:104E9000264001F045FFCF214DF2274001F040FFB1
:104EA00002214DF2284001F03BFFDE214DF2294066
:104EB00001F036FF02214DF22A4001F031FFF221CC
:104EC0004DF22B4001F02CFF02214DF22C4001F05D
:104ED00027FFFE214DF22D4001F022FF03214DF26C
:104EE0002E4001F01DFF10214DF22F4001F018FF60
:104EF00003214DF2304001F013FF33214DF23140D8
:104F000001F00EFF03214DF2324001F009FF6D2147
:104F10004DF2334001F004FF00214FF4554001F001
:104F2000FFFE33214DF2015001F0FAFE00214DF257
:104F3000025001F0F5FE34214DF2035001F0F0FE75
:104F400000214DF2045001F0EBFE3A214DF20550E4
:104F500001F0E6FE00214DF2065001F0E1FE4A218B
:104F60004DF2075001F0DCFE00214DF2085001F037
:104F7000D7FE5C214DF2095001F0D2FE00214DF226
:104F80000A5001F0CDFE81214DF20B5001F0C8FE18
:104F900000214DF20C5001F0C3FEA6214DF20D5040
:104FA00001F0BEFE00214DF20E5001F0B9FEE521E8
:104FB0004DF20F5001F0B4FE01214DF2105001F0FE
:104FC000AFFE13214DF2115001F0AAFE01214DF266
:104FD000125001F0A5FE54214DF2135001F0A0FE35
:104FE00001214DF2145001F09BFE82214DF215502B
:104FF00001F096FE01214DF2165001F091FECA21FA
:105000004DF2175001F08CFE02214DF2185001F0C4
:1050100087FE00214DF2195001F082FE02214DF26F
:105020001A5001F07DFE01214DF21B5001F078FE77
:1050300002214DF21C5001F073FE34214DF21D503F
:1050400001F06EFE02214DF21E5001F069FE672153
:105050004DF21F5001F064FE02214DF2205001F08C
:105060005FFE84214DF2215001F05AFE02214DF2E3
:10507000225001F055FEA4214DF2235001F050FEC4
:1050800002214DF2245001F04BFEB7214DF2255084
:1050900001F046FE02214DF2265001F041FECF21E3
:1050A0004DF2275001F03CFE02214DF2285001F054
:1050B00037FEDE214DF2295001F032FE02214DF281
:1050C0002A5001F02DFEF2214DF22B5001F028FE66
:1050D00002214DF22C5001F023FEFE214DF22D5005
:1050E00001F01EFE03214DF22E5001F019FE102199
:1050F0004DF22F5001F014FE03214DF2305001F01B
:105100000FFE33214DF2315001F00AFE03214DF222
:10511000325001F005FE6D214DF2335001F000FEDA
:1051200000214FF4564001F0FBFD33214DF20160A8
:1051300001F0F6FD00214DF2026001F0F1FD342195
:105140004DF2036001F0ECFD00214DF2046001F02E
:10515000E7FD3A214DF2056001F0E2FD00214DF23C
:10516000066001F0DDFD4A214DF2076001F0D8FD37
:1051700000214DF2086001F0D3FD5C214DF2096081
:1051800001F0CEFD00214DF20A6001F0C9FD812140
:105190004DF20B6001F0C4FD00214DF20C6001F0F6
:1051A000BFFDA6214DF20D6001F0BAFD00214DF2C8
:1051B0000E6001F0B5FDE5214DF20F6001F0B0FD8C
:1051C00001214DF2106001F0ABFD13214DF2116091
:1051D00001F0A6FD01214DF2126001F0A1FD542164
:1051E0004DF2136001F09CFD01214DF2146001F0BD
:1051F00097FD82214DF2156001F092FD01214DF2E3
:10520000166001F08DFDCA214DF2176001F088FD96
:1052100002214DF2186001F083FD00214DF219606A
:1052200001F07EFD02214DF21A6001F079FD0121AD
:105230004DF21B6001F074FD02214DF21C6001F083
:105240006FFD34214DF21D6001F06AFD02214DF227
:105250001E6001F065FD67214DF21F6001F060FDE9
:1052600002214DF2206001F05BFD84214DF22160AE
:1052700001F056FD02214DF2226001F051FDA42102
:105280004DF2236001F04CFD02214DF2246001F04B
:1052900047FDB7214DF2256001F042FD02214DF29C
:1052A000266001F03DFDCF214DF2276001F038FD71
:1052B00002214DF2286001F033FDDE214DF229601C
:1052C00001F02EFD02214DF22A6001F029FDF221AC
:1052D0004DF22B6001F024FD02214DF22C6001F013
:1052E0001FFDFE214DF22D6001F01AFD03214DF24C
:1052F0002E6001F015FD10214DF22F6001F010FD20
:1053000003214DF2306001F00BFD33214DF231608D
:1053100001F006FD03214DF2326001F001FD6D2127
:105320004DF2336001F0FCFC5521184601F0F8FC09
:10533000AA21204601F0F4FC5221284601F0F0FC9D
:105340000821304601F0ECFC0021384601F0E8FC71
:10535000CC21484601F0E4FC0021504601F0E0FC7D
:105360000521404601F0DCFC70214FF4374001F08C
:10537000D7FC70214BF2017001F0D2FC01214FF4F7
:10538000384001F0CDFC03214BF6010001F0C8FCD0
:1053900003214BF6020001F0C3FC03214BF603008E
:1053A00001F0BEFC02214FF43C4001F0B9FC0021A9
:1053B0004BF6014001F0B4FC00214BF6024001F035
:1053C000AFFCD0214FF4494001F0AAFC02214CF679
:1053D000011001F0A5FC50214CF6021001F0A0FCD8
:1053E00050214CF6031001F09BFC50214CF60410A8
:1053F00001F096FC00214FF4545001F091FC55212E
:105400004FF4685001F08CFC4FF4885001F072FCAE
:10541000782007F0DDF84FF4245001F06BFCFDE03C
:10542000A0F513414FF480744FF4E06940F2022A72
:105430004FF4274625397CD0A0F5134140F207757B
:10544000283977D0A0F513414FF488774FF41C56D4
:10545000203970D0A0F5134131396DD0A0F5A841A5
:1054600008396AD0A0F5A8514FF44077053965D0C6
:10547000A0F5354105397CD0A0F54541053979D0F5
:10548000A0F58A41313976D0A0F58A41353973D0FB
:105490004045C4D1E22001F02DFC1D2001F01EFC8E
:1054A000022001F01BFC042001F018FC642007F02E
:1054B0008FF8E02001F01EFC012001F00FFC0A2013
:1054C00007F064F8E02001F015FC032001F006FC71
:1054D0000C2007F05BF8012001F00CFC0A2007F01B
:1054E00055F8E62001F006FC2F2001F0F7FBFF2025
:1054F00001F0F4FBFF2001F0F1FBB02001F0FAFB1A
:10550000202001F0EBFB002001F0E8FB032001F07C
:10551000E5FB40F21F3001F0E1FB012001F0DEFB72
:1055200040F2DF1001F0DAFB002001F0D7FBB420DD
:1055300005E080E04BE103E2AAE27FE3FEE301F055
:10554000D9FB042001F0CAFB40F21F4001F0C6FB6A
:10555000002001F0C3FB2E2001F0C0FB002001F071
:10556000BDFB002001F0BAFB002001F0B7FB0020DA
:1055700003E0FDE3FDE3FDE3FDE301F0AFFBB62057
:1055800001F0B8FB022001F0A9FB4FF4037001F019
:10559000A5FB002001F0A2FB172001F09FFB1520C6
:1055A00001F09CFB002001F099FB002001F096FB2C
:1055B000F02001F09FFB032001F090FB292001F077
:1055C00099FBD02001F096FB002001F087FBBE2064
:1055D00001F090FB052001F081FBFE2001F07EFB35
:1055E000012001F07BFB002001F078FB002001F09E
:1055F00075FB002001F072FBB82001F07BFB03205B
:1056000001F06CFB012001F069FBBA2001F072FB94
:10561000012001F063FB642001F080F80120FDF718
:1056200033FAFF490120C1F8BC025846FDF7CAF918
:1056300021B0BDE8F08F47F6F001E52001F070FBE6
:105640002146012001F06CFB4946022001F068FB75
:1056500041F23001032001F063FB0021042001F03E
:105660005FFB5146082001F05BFB0021092001F09F
:1056700057FB00210A2001F053FB00210C2001F010
:105680004FFB00210D2001F04BFB00210F2001F00A
:1056900047FB0021102001F043FB0721112001F0FE
:1056A0003FFB0021122001F03BFB0021132001F001
:1056B00037FB0021072001F033FB41F290611020FD
:1056C00001F02EFB40F22721112001F029FB9D2142
:1056D000122001F025FB4FF4C851132001F020FBEC
:1056E0002521292001F01CFB0D212B2001F018FBA6
:1056F0000721302001F014FB40F20331312001F08A
:105700000FFB0321322001F00BFB40F20621352074
:1057100001F006FB0821362001F002FB40F20641B1
:10572000372001F0FDFA4FF44171382001F0F8FA0A
:105730000721392001F0F4FA40F202613C2001F027
:10574000EFFA08213D2001F0EBFA0021502001F092
:10575000E7FAEF21512001F0E3FA0021522001F095
:10576000DFFA40F23F11532001F0DAFA31466020AF
:1057700001F0D6FA0121612001F0D2FA00216A205D
:1057800001F0CEFA0021802001F0CAFA0021812028
:1057900001F0C6FA0021822001F0C2FA0021832024
:1057A00001F0BEFA0021842001F0BAFA0021852020
:1057B00001F0B6FA1021902001F0B2FA4FF4C06166
:1057C000922001F0ADFA40F233110720FEE341F2DE
:1057D0008F01EC2001F0A4FA41F23421EF2001F016
:1057E0009FFA2146012001F09BFA4946022001F070
:1057F00097FA41F23001032001F092FA00210420CF
:1058000001F08EFA5146082001F08AFA00210920A1
:1058100001F086FA00210A2001F082FA01210C2011
:1058200001F07EFA00210D2001F07AFA00210F200C
:1058300001F076FA0021102001F072FA0721112000
:1058400001F06EFA0021122001F06AFA0021132003
:1058500001F066FA0121072001F062FA322006F019
:1058600095FE41F29041102001F05AFA40F22721B2
:10587000112001F055FA322006F088FE8A2112200C
:1058800001F04EFA322006F081FE4FF4D051132081
:1058900001F046FA0621292001F042FA0D212B20C1
:1058A00001F03EFA322006F071FE0021202001F0C6
:1058B00037FA0021212001F033FA322006F066FE8B
:1058C0000021302001F02CFA40F20461312001F077
:1058D00027FA40F20531322001F022FA002135206A
:1058E00001F01EFA40F60941362001F019FA4FF492
:1058F0000171372001F014FA40F20131382001F033
:105900000FFA2946392001F00BFA00213C2001F062
:1059100007FA40F60A213D2001F002FA322006F093
:1059200035FE0021502001F0FBF9EF21512001F05C
:10593000F7F90021522001F0F3F940F23F114EE156
:105940000021084601F0ECF92146012001F0E8F9B8
:105950004946022001F0E4F941F23001032001F050
:10596000DFF90021042001F0DBF95146082001F0A5
:10597000D7F90021092001F0D3F900210A2001F014
:10598000CFF901210C2001F0CBF900210D2001F00D
:10599000C7F900210F2001F0C3F9322006F0F6FD0F
:1059A00040F20111072001F0BBF9322006F0EEFDB4
:1059B0004FF48651102001F0B3F90721112001F0B6
:1059C000AFF93946122001F0ABF94FF430611320E2
:1059D00001F0A6F90021292001F0A2F944F21001FA
:1059E0002B2001F09DF90021502001F099F9EF21C1
:1059F000512001F095F90021522001F091F940F277
:105A00003F11532001F08CF93146602001F088F9F4
:105A10000121612001F084F900216A2002E00000E8
:105A20000080404201F07CF90021802001F078F9EB
:105A30000021812001F074F90021822001F070F929
:105A40000021832001F06CF90021842001F068F925
:105A50000021852001F064F91021902001F060F907
:105A60000021922001F05CF90121932001F058F906
:105A70003946952001F054F90021972001F050F9A2
:105A80000021982001F04CF940F27311072081E3C6
:105A900041F21401E72001F043F92146012001F011
:105AA0003FF94FF40071022001F03AF941F2380158
:105AB000032001F035F95146082001F031F90021A9
:105AC000092001F02DF900210A2001F029F9002117
:105AD0000C2001F025F900210D2001F021F9002111
